{
  "contractName": "HeroContract",
  "abi": [
    {
      "inputs": [
        {
          "internalType": "address",
          "name": "",
          "type": "address"
        }
      ],
      "name": "heroes",
      "outputs": [
        {
          "internalType": "string",
          "name": "name",
          "type": "string"
        },
        {
          "internalType": "uint256",
          "name": "lifePoint",
          "type": "uint256"
        },
        {
          "internalType": "uint256",
          "name": "wins",
          "type": "uint256"
        },
        {
          "internalType": "uint8",
          "name": "level",
          "type": "uint8"
        },
        {
          "internalType": "uint8",
          "name": "attack",
          "type": "uint8"
        },
        {
          "internalType": "uint8",
          "name": "defense",
          "type": "uint8"
        },
        {
          "internalType": "uint8",
          "name": "speed",
          "type": "uint8"
        },
        {
          "internalType": "uint8",
          "name": "luck",
          "type": "uint8"
        },
        {
          "internalType": "uint8",
          "name": "attributePoints",
          "type": "uint8"
        }
      ],
      "stateMutability": "view",
      "type": "function",
      "constant": true
    }
  ],
  "bytecode": "0x608060405234801561001057600080fd5b50610414806100206000396000f3fe608060405234801561001057600080fd5b506004361061002b5760003560e01c80637f026d7614610030575b600080fd5b61004a600480360381019061004591906101ef565b610068565b60405161005f999897969594939291906102ea565b60405180910390f35b600060205280600052604060002060009150905080600001805461008b906103ad565b80601f01602080910402602001604051908101604052809291908181526020018280546100b7906103ad565b80156101045780601f106100d957610100808354040283529160200191610104565b820191906000526020600020905b8154815290600101906020018083116100e757829003601f168201915b5050505050908060010154908060020154908060030160009054906101000a900460ff16908060030160019054906101000a900460ff16908060030160029054906101000a900460ff16908060030160039054906101000a900460ff16908060030160049054906101000a900460ff16908060030160059054906101000a900460ff16905089565b600080fd5b600073ffffffffffffffffffffffffffffffffffffffff82169050919050565b60006101bc82610191565b9050919050565b6101cc816101b1565b81146101d757600080fd5b50565b6000813590506101e9816101c3565b92915050565b6000602082840312156102055761020461018c565b5b6000610213848285016101da565b91505092915050565b600081519050919050565b600082825260208201905092915050565b60005b8381101561025657808201518184015260208101905061023b565b83811115610265576000848401525b50505050565b6000601f19601f8301169050919050565b60006102878261021c565b6102918185610227565b93506102a1818560208601610238565b6102aa8161026b565b840191505092915050565b6000819050919050565b6102c8816102b5565b82525050565b600060ff82169050919050565b6102e4816102ce565b82525050565b6000610120820190508181036000830152610305818c61027c565b9050610314602083018b6102bf565b610321604083018a6102bf565b61032e60608301896102db565b61033b60808301886102db565b61034860a08301876102db565b61035560c08301866102db565b61036260e08301856102db565b6103706101008301846102db565b9a9950505050505050505050565b7f4e487b7100000000000000000000000000000000000000000000000000000000600052602260045260246000fd5b600060028204905060018216806103c557607f821691505b6020821081036103d8576103d761037e565b5b5091905056fea264697066735822122014db3a1ef798df23cf8de514fbe79b08278c7e567b683426289f3a186e2b5c7e64736f6c634300080f0033",
  "immutableReferences": {},
  "source": "// SPDX-License-Identifier: MIT\npragma solidity >=0.4.22 <0.9.0;\n\ncontract HeroContract {\n    struct Hero {\n        string name;\n        uint lifePoint;\n        uint wins;\n        uint8 level;\n        uint8 attack;\n        uint8 defense;\n        uint8 speed;\n        uint8 luck;\n        uint8 attributePoints;\n    }\n    mapping(address => Hero) public heroes;\n    uint8 internal constant MAX_ATTRIBUTE_POINTS = 50;\n\n    modifier hasHero() {\n        require(heroes[msg.sender].level > 0);\n        _;\n    }\n\n    modifier hasNotHero() {\n        require(heroes[msg.sender].level == 0);\n        _;\n    }\n\n    function _initializeHero() internal pure returns (Hero memory) {\n        Hero memory newHero;\n        newHero.name = \"Hero\";\n        newHero.level = 1;\n        newHero.attack = 1;\n        newHero.defense = 1;\n        newHero.speed = 1;\n        newHero.luck = 1;\n        newHero.lifePoint = 100;\n        newHero.wins = 0;\n        newHero.attributePoints = 10;\n        return newHero;\n    }\n}",
  "sourcePath": "/Users/beeleethebee/Documents/web3/test_dapp/contracts/HeroContract.sol",
  "compiler": {
    "name": "solc",
    "version": "0.8.15+commit.e14f2714.Emscripten.clang"
  },
  "schemaVersion": "3.4.8",
  "updatedAt": "2022-08-20T23:48:17.488Z",
  "networkType": "ethereum",
  "devdoc": {
    "kind": "dev",
    "methods": {},
    "version": 1
  },
  "userdoc": {
    "kind": "user",
    "methods": {},
    "version": 1
  }
}