{
  "contractName": "HeroContract",
  "abi": [
    {
      "inputs": [
        {
          "internalType": "address",
          "name": "",
          "type": "address"
        }
      ],
      "name": "heroes",
      "outputs": [
        {
          "internalType": "string",
          "name": "name",
          "type": "string"
        },
        {
          "internalType": "uint8",
          "name": "level",
          "type": "uint8"
        },
        {
          "internalType": "uint8",
          "name": "attack",
          "type": "uint8"
        },
        {
          "internalType": "uint8",
          "name": "defense",
          "type": "uint8"
        },
        {
          "internalType": "uint8",
          "name": "speed",
          "type": "uint8"
        },
        {
          "internalType": "uint8",
          "name": "luck",
          "type": "uint8"
        },
        {
          "internalType": "uint8",
          "name": "attributePoints",
          "type": "uint8"
        },
        {
          "internalType": "uint16",
          "name": "lifePoint",
          "type": "uint16"
        },
        {
          "internalType": "uint16",
          "name": "wins",
          "type": "uint16"
        }
      ],
      "stateMutability": "view",
      "type": "function",
      "constant": true
    }
  ],
  "bytecode": "0x608060405234801561001057600080fd5b50610434806100206000396000f3fe608060405234801561001057600080fd5b506004361061002b5760003560e01c80637f026d7614610030575b600080fd5b61004a6004803603810190610045919061020b565b610068565b60405161005f9998979695949392919061030a565b60405180910390f35b600060205280600052604060002060009150905080600001805461008b906103cd565b80601f01602080910402602001604051908101604052809291908181526020018280546100b7906103cd565b80156101045780601f106100d957610100808354040283529160200191610104565b820191906000526020600020905b8154815290600101906020018083116100e757829003601f168201915b5050505050908060010160009054906101000a900460ff16908060010160019054906101000a900460ff16908060010160029054906101000a900460ff16908060010160039054906101000a900460ff16908060010160049054906101000a900460ff16908060010160059054906101000a900460ff16908060010160069054906101000a900461ffff16908060010160089054906101000a900461ffff16905089565b600080fd5b600073ffffffffffffffffffffffffffffffffffffffff82169050919050565b60006101d8826101ad565b9050919050565b6101e8816101cd565b81146101f357600080fd5b50565b600081359050610205816101df565b92915050565b600060208284031215610221576102206101a8565b5b600061022f848285016101f6565b91505092915050565b600081519050919050565b600082825260208201905092915050565b60005b83811015610272578082015181840152602081019050610257565b83811115610281576000848401525b50505050565b6000601f19601f8301169050919050565b60006102a382610238565b6102ad8185610243565b93506102bd818560208601610254565b6102c681610287565b840191505092915050565b600060ff82169050919050565b6102e7816102d1565b82525050565b600061ffff82169050919050565b610304816102ed565b82525050565b6000610120820190508181036000830152610325818c610298565b9050610334602083018b6102de565b610341604083018a6102de565b61034e60608301896102de565b61035b60808301886102de565b61036860a08301876102de565b61037560c08301866102de565b61038260e08301856102fb565b6103906101008301846102fb565b9a9950505050505050505050565b7f4e487b7100000000000000000000000000000000000000000000000000000000600052602260045260246000fd5b600060028204905060018216806103e557607f821691505b6020821081036103f8576103f761039e565b5b5091905056fea2646970667358221220b619f1f5585d44caaaed27f8428a7f2e24f372a019383a874e595f68f41af1ae64736f6c634300080f0033",
  "immutableReferences": {},
  "source": "// SPDX-License-Identifier: MIT\npragma solidity >=0.4.22 <0.9.0;\n\ncontract HeroContract {\n    struct Hero {\n        string name;\n        uint8 level;\n        uint8 attack;\n        uint8 defense;\n        uint8 speed;\n        uint8 luck;\n        uint8 attributePoints;\n        uint16 lifePoint;\n        uint16 wins;\n    }\n    mapping(address => Hero) public heroes;\n    uint8 internal constant MAX_ATTRIBUTE_POINTS = 50;\n\n    modifier hasHero() {\n        require(heroes[msg.sender].level > 0);\n        _;\n    }\n\n    modifier hasNotHero() {\n        require(heroes[msg.sender].level == 0);\n        _;\n    }\n\n    function _initializeHero() internal pure returns (Hero memory) {\n        Hero memory newHero;\n        newHero.name = \"Hero\";\n        newHero.level = 1;\n        newHero.attack = 1;\n        newHero.defense = 1;\n        newHero.speed = 1;\n        newHero.luck = 1;\n        newHero.lifePoint = 100;\n        newHero.wins = 0;\n        newHero.attributePoints = 10;\n        return newHero;\n    }\n}",
  "sourcePath": "/Users/beeleethebee/Documents/web3/test_dapp/contracts/HeroContract.sol",
  "compiler": {
    "name": "solc",
    "version": "0.8.15+commit.e14f2714.Emscripten.clang"
  },
  "schemaVersion": "3.4.8",
  "updatedAt": "2022-08-20T23:15:53.350Z",
  "networkType": "ethereum",
  "devdoc": {
    "kind": "dev",
    "methods": {},
    "version": 1
  },
  "userdoc": {
    "kind": "user",
    "methods": {},
    "version": 1
  }
}