{
  "contractName": "PlayerContract",
  "abi": [
    {
      "inputs": [
        {
          "internalType": "address",
          "name": "",
          "type": "address"
        }
      ],
      "name": "heroes",
      "outputs": [
        {
          "internalType": "string",
          "name": "name",
          "type": "string"
        },
        {
          "internalType": "uint256",
          "name": "lifePoint",
          "type": "uint256"
        },
        {
          "internalType": "uint256",
          "name": "wins",
          "type": "uint256"
        },
        {
          "internalType": "uint8",
          "name": "level",
          "type": "uint8"
        },
        {
          "internalType": "uint8",
          "name": "attack",
          "type": "uint8"
        },
        {
          "internalType": "uint8",
          "name": "defense",
          "type": "uint8"
        },
        {
          "internalType": "uint8",
          "name": "speed",
          "type": "uint8"
        },
        {
          "internalType": "uint8",
          "name": "luck",
          "type": "uint8"
        },
        {
          "internalType": "uint8",
          "name": "attributePoints",
          "type": "uint8"
        }
      ],
      "stateMutability": "view",
      "type": "function",
      "constant": true
    },
    {
      "inputs": [
        {
          "internalType": "uint8",
          "name": "_attack",
          "type": "uint8"
        },
        {
          "internalType": "uint8",
          "name": "_defense",
          "type": "uint8"
        },
        {
          "internalType": "uint8",
          "name": "_speed",
          "type": "uint8"
        },
        {
          "internalType": "uint8",
          "name": "_luck",
          "type": "uint8"
        }
      ],
      "name": "incrementAttributes",
      "outputs": [],
      "stateMutability": "nonpayable",
      "type": "function"
    },
    {
      "inputs": [],
      "name": "getMyHero",
      "outputs": [
        {
          "components": [
            {
              "internalType": "string",
              "name": "name",
              "type": "string"
            },
            {
              "internalType": "uint256",
              "name": "lifePoint",
              "type": "uint256"
            },
            {
              "internalType": "uint256",
              "name": "wins",
              "type": "uint256"
            },
            {
              "internalType": "uint8",
              "name": "level",
              "type": "uint8"
            },
            {
              "internalType": "uint8",
              "name": "attack",
              "type": "uint8"
            },
            {
              "internalType": "uint8",
              "name": "defense",
              "type": "uint8"
            },
            {
              "internalType": "uint8",
              "name": "speed",
              "type": "uint8"
            },
            {
              "internalType": "uint8",
              "name": "luck",
              "type": "uint8"
            },
            {
              "internalType": "uint8",
              "name": "attributePoints",
              "type": "uint8"
            }
          ],
          "internalType": "struct HeroContract.Hero",
          "name": "hero",
          "type": "tuple"
        },
        {
          "internalType": "string",
          "name": "status",
          "type": "string"
        }
      ],
      "stateMutability": "view",
      "type": "function",
      "constant": true
    },
    {
      "inputs": [],
      "name": "burnHero",
      "outputs": [
        {
          "internalType": "bool",
          "name": "",
          "type": "bool"
        }
      ],
      "stateMutability": "nonpayable",
      "type": "function"
    },
    {
      "inputs": [],
      "name": "createHero",
      "outputs": [
        {
          "components": [
            {
              "internalType": "string",
              "name": "name",
              "type": "string"
            },
            {
              "internalType": "uint256",
              "name": "lifePoint",
              "type": "uint256"
            },
            {
              "internalType": "uint256",
              "name": "wins",
              "type": "uint256"
            },
            {
              "internalType": "uint8",
              "name": "level",
              "type": "uint8"
            },
            {
              "internalType": "uint8",
              "name": "attack",
              "type": "uint8"
            },
            {
              "internalType": "uint8",
              "name": "defense",
              "type": "uint8"
            },
            {
              "internalType": "uint8",
              "name": "speed",
              "type": "uint8"
            },
            {
              "internalType": "uint8",
              "name": "luck",
              "type": "uint8"
            },
            {
              "internalType": "uint8",
              "name": "attributePoints",
              "type": "uint8"
            }
          ],
          "internalType": "struct HeroContract.Hero",
          "name": "",
          "type": "tuple"
        }
      ],
      "stateMutability": "nonpayable",
      "type": "function"
    }
  ],
  "bytecode": "0x608060405234801561001057600080fd5b50611593806100206000396000f3fe608060405234801561001057600080fd5b50600436106100575760003560e01c80633fba13991461005c57806362c84fc01461007b5780637f026d7614610097578063a80d3e6e146100cf578063b5c225a3146100ed575b600080fd5b61006461010b565b604051610072929190610e7a565b60405180910390f35b61009560048036038101906100909190610ee2565b610344565b005b6100b160048036038101906100ac9190610fa7565b6106f5565b6040516100c699989796959493929190610ff2565b60405180910390f35b6100d7610819565b6040516100e49190611086565b60405180910390f35b6100f56109c5565b60405161010291906110c3565b60405180910390f35b610113610be2565b606060008060003373ffffffffffffffffffffffffffffffffffffffff1673ffffffffffffffffffffffffffffffffffffffff168152602001908152602001600020604051806101200160405290816000820180546101719061110d565b80601f016020809104026020016040519081016040528092919081815260200182805461019d9061110d565b80156101ea5780601f106101bf576101008083540402835291602001916101ea565b820191906000526020600020905b8154815290600101906020018083116101cd57829003601f168201915b5050505050815260200160018201548152602001600282015481526020016003820160009054906101000a900460ff1660ff1660ff1681526020016003820160019054906101000a900460ff1660ff1660ff1681526020016003820160029054906101000a900460ff1660ff1660ff1681526020016003820160039054906101000a900460ff1660ff1660ff1681526020016003820160049054906101000a900460ff1660ff1660ff1681526020016003820160059054906101000a900460ff1660ff1660ff168152505090506000816060015160ff1614610306578092506040518060400160405280600781526020017f7375636365737300000000000000000000000000000000000000000000000000815250915061033f565b6040518060400160405280600581526020017f6572726f7200000000000000000000000000000000000000000000000000000081525091505b509091565b60008060003373ffffffffffffffffffffffffffffffffffffffff1673ffffffffffffffffffffffffffffffffffffffff16815260200190815260200160002060030160009054906101000a900460ff1660ff16116103a257600080fd5b6000818385876103b2919061116d565b6103bc919061116d565b6103c6919061116d565b90506000803373ffffffffffffffffffffffffffffffffffffffff1673ffffffffffffffffffffffffffffffffffffffff16815260200190815260200160002060030160059054906101000a900460ff1660ff168160ff16111561045f576040517f08c379a0000000000000000000000000000000000000000000000000000000008152600401610456906111f0565b60405180910390fd5b60008160ff16116104a5576040517f08c379a000000000000000000000000000000000000000000000000000000000815260040161049c9061125c565b60405180910390fd5b846000803373ffffffffffffffffffffffffffffffffffffffff1673ffffffffffffffffffffffffffffffffffffffff16815260200190815260200160002060030160018282829054906101000a900460ff16610502919061116d565b92506101000a81548160ff021916908360ff160217905550836000803373ffffffffffffffffffffffffffffffffffffffff1673ffffffffffffffffffffffffffffffffffffffff16815260200190815260200160002060030160028282829054906101000a900460ff16610577919061116d565b92506101000a81548160ff021916908360ff160217905550826000803373ffffffffffffffffffffffffffffffffffffffff1673ffffffffffffffffffffffffffffffffffffffff16815260200190815260200160002060030160038282829054906101000a900460ff166105ec919061116d565b92506101000a81548160ff021916908360ff160217905550836000803373ffffffffffffffffffffffffffffffffffffffff1673ffffffffffffffffffffffffffffffffffffffff16815260200190815260200160002060030160028282829054906101000a900460ff16610661919061116d565b92506101000a81548160ff021916908360ff160217905550806000803373ffffffffffffffffffffffffffffffffffffffff1673ffffffffffffffffffffffffffffffffffffffff16815260200190815260200160002060030160058282829054906101000a900460ff166106d6919061127c565b92506101000a81548160ff021916908360ff1602179055505050505050565b60006020528060005260406000206000915090508060000180546107189061110d565b80601f01602080910402602001604051908101604052809291908181526020018280546107449061110d565b80156107915780601f1061076657610100808354040283529160200191610791565b820191906000526020600020905b81548152906001019060200180831161077457829003601f168201915b5050505050908060010154908060020154908060030160009054906101000a900460ff16908060030160019054906101000a900460ff16908060030160029054906101000a900460ff16908060030160039054906101000a900460ff16908060030160049054906101000a900460ff16908060030160059054906101000a900460ff16905089565b610821610be2565b60008060003373ffffffffffffffffffffffffffffffffffffffff1673ffffffffffffffffffffffffffffffffffffffff16815260200190815260200160002060030160009054906101000a900460ff1660ff161461087f57600080fd5b6000610889610b04565b9050806000803373ffffffffffffffffffffffffffffffffffffffff1673ffffffffffffffffffffffffffffffffffffffff16815260200190815260200160002060008201518160000190816108df919061148b565b50602082015181600101556040820151816002015560608201518160030160006101000a81548160ff021916908360ff16021790555060808201518160030160016101000a81548160ff021916908360ff16021790555060a08201518160030160026101000a81548160ff021916908360ff16021790555060c08201518160030160036101000a81548160ff021916908360ff16021790555060e08201518160030160046101000a81548160ff021916908360ff1602179055506101008201518160030160056101000a81548160ff021916908360ff1602179055509050508091505090565b6000806000803373ffffffffffffffffffffffffffffffffffffffff1673ffffffffffffffffffffffffffffffffffffffff16815260200190815260200160002060030160009054906101000a900460ff1660ff1611610a2457600080fd5b6000803373ffffffffffffffffffffffffffffffffffffffff1673ffffffffffffffffffffffffffffffffffffffff16815260200190815260200160002060008082016000610a739190610c40565b600182016000905560028201600090556003820160006101000a81549060ff02191690556003820160016101000a81549060ff02191690556003820160026101000a81549060ff02191690556003820160036101000a81549060ff02191690556003820160046101000a81549060ff02191690556003820160056101000a81549060ff021916905550506001905090565b610b0c610be2565b610b14610be2565b6040518060400160405280600481526020017f4865726f0000000000000000000000000000000000000000000000000000000081525081600001819052506001816060019060ff16908160ff16815250506001816080019060ff16908160ff168152505060018160a0019060ff16908160ff168152505060018160c0019060ff16908160ff168152505060018160e0019060ff16908160ff168152505060648160200181815250506000816040018181525050600a81610100019060ff16908160ff16815250508091505090565b604051806101200160405280606081526020016000815260200160008152602001600060ff168152602001600060ff168152602001600060ff168152602001600060ff168152602001600060ff168152602001600060ff1681525090565b508054610c4c9061110d565b6000825580601f10610c5e5750610c7d565b601f016020900490600052602060002090810190610c7c9190610c80565b5b50565b5b80821115610c99576000816000905550600101610c81565b5090565b600081519050919050565b600082825260208201905092915050565b60005b83811015610cd7578082015181840152602081019050610cbc565b83811115610ce6576000848401525b50505050565b6000601f19601f8301169050919050565b6000610d0882610c9d565b610d128185610ca8565b9350610d22818560208601610cb9565b610d2b81610cec565b840191505092915050565b6000819050919050565b610d4981610d36565b82525050565b600060ff82169050919050565b610d6581610d4f565b82525050565b6000610120830160008301518482036000860152610d898282610cfd565b9150506020830151610d9e6020860182610d40565b506040830151610db16040860182610d40565b506060830151610dc46060860182610d5c565b506080830151610dd76080860182610d5c565b5060a0830151610dea60a0860182610d5c565b5060c0830151610dfd60c0860182610d5c565b5060e0830151610e1060e0860182610d5c565b50610100830151610e25610100860182610d5c565b508091505092915050565b600082825260208201905092915050565b6000610e4c82610c9d565b610e568185610e30565b9350610e66818560208601610cb9565b610e6f81610cec565b840191505092915050565b60006040820190508181036000830152610e948185610d6b565b90508181036020830152610ea88184610e41565b90509392505050565b600080fd5b610ebf81610d4f565b8114610eca57600080fd5b50565b600081359050610edc81610eb6565b92915050565b60008060008060808587031215610efc57610efb610eb1565b5b6000610f0a87828801610ecd565b9450506020610f1b87828801610ecd565b9350506040610f2c87828801610ecd565b9250506060610f3d87828801610ecd565b91505092959194509250565b600073ffffffffffffffffffffffffffffffffffffffff82169050919050565b6000610f7482610f49565b9050919050565b610f8481610f69565b8114610f8f57600080fd5b50565b600081359050610fa181610f7b565b92915050565b600060208284031215610fbd57610fbc610eb1565b5b6000610fcb84828501610f92565b91505092915050565b610fdd81610d36565b82525050565b610fec81610d4f565b82525050565b600061012082019050818103600083015261100d818c610e41565b905061101c602083018b610fd4565b611029604083018a610fd4565b6110366060830189610fe3565b6110436080830188610fe3565b61105060a0830187610fe3565b61105d60c0830186610fe3565b61106a60e0830185610fe3565b611078610100830184610fe3565b9a9950505050505050505050565b600060208201905081810360008301526110a08184610d6b565b905092915050565b60008115159050919050565b6110bd816110a8565b82525050565b60006020820190506110d860008301846110b4565b92915050565b7f4e487b7100000000000000000000000000000000000000000000000000000000600052602260045260246000fd5b6000600282049050600182168061112557607f821691505b602082108103611138576111376110de565b5b50919050565b7f4e487b7100000000000000000000000000000000000000000000000000000000600052601160045260246000fd5b600061117882610d4f565b915061118383610d4f565b92508260ff038211156111995761119861113e565b5b828201905092915050565b7f4e6f7420656e6f7567682061747472696275746520706f696e74730000000000600082015250565b60006111da601b83610e30565b91506111e5826111a4565b602082019050919050565b60006020820190508181036000830152611209816111cd565b9050919050565b7f4e6f2061747472696275746520706f696e747320746f20696e6372656d656e74600082015250565b6000611246602083610e30565b915061125182611210565b602082019050919050565b6000602082019050818103600083015261127581611239565b9050919050565b600061128782610d4f565b915061129283610d4f565b9250828210156112a5576112a461113e565b5b828203905092915050565b7f4e487b7100000000000000000000000000000000000000000000000000000000600052604160045260246000fd5b60008190508160005260206000209050919050565b60006020601f8301049050919050565b600082821b905092915050565b6000600883026113417fffffffffffffffffffffffffffffffffffffffffffffffffffffffffffffffff82611304565b61134b8683611304565b95508019841693508086168417925050509392505050565b6000819050919050565b600061138861138361137e84610d36565b611363565b610d36565b9050919050565b6000819050919050565b6113a28361136d565b6113b66113ae8261138f565b848454611311565b825550505050565b600090565b6113cb6113be565b6113d6818484611399565b505050565b5b818110156113fa576113ef6000826113c3565b6001810190506113dc565b5050565b601f82111561143f57611410816112df565b611419846112f4565b81016020851015611428578190505b61143c611434856112f4565b8301826113db565b50505b505050565b600082821c905092915050565b600061146260001984600802611444565b1980831691505092915050565b600061147b8383611451565b9150826002028217905092915050565b61149482610c9d565b67ffffffffffffffff8111156114ad576114ac6112b0565b5b6114b7825461110d565b6114c28282856113fe565b600060209050601f8311600181146114f557600084156114e3578287015190505b6114ed858261146f565b865550611555565b601f198416611503866112df565b60005b8281101561152b57848901518255600182019150602085019450602081019050611506565b868310156115485784890151611544601f891682611451565b8355505b6001600288020188555050505b50505050505056fea2646970667358221220e1d0672d5c1cf7112309827c492859358e3e3fec4752a66c4aaa0985862a29a264736f6c634300080f0033",
  "immutableReferences": {},
  "source": "// SPDX-License-Identifier: MIT\npragma solidity >=0.4.22 <0.9.0;\n\nimport \"./HeroContract.sol\";\n\ncontract PlayerContract is HeroContract {\n\n  function incrementAttributes(uint8 _attack, uint8 _defense, uint8 _speed, uint8 _luck) public hasHero {\n    uint8 sum = _attack + _defense + _speed + _luck;\n    require(sum <= heroes[msg.sender].attributePoints, \"Not enough attribute points\");\n    require(sum > 0, \"No attribute points to increment\");\n    heroes[msg.sender].attack += _attack;\n    heroes[msg.sender].defense += _defense;\n    heroes[msg.sender].speed += _speed;\n    heroes[msg.sender].defense += _defense;\n    heroes[msg.sender].attributePoints -= sum;\n  }\n\n  function getMyHero() external view returns (Hero memory hero, string memory status) {\n    Hero memory senderHero = heroes[msg.sender];\n    if (senderHero.level != 0) {\n      hero = senderHero;\n      status = \"success\";\n    } else {\n      status = \"error\";\n    }\n  }\n\n  function burnHero() external hasHero returns (bool) {\n    delete heroes[msg.sender];\n    return true;\n  }\n\n  function createHero() external hasNotHero returns (Hero memory)  {\n    Hero memory newHero = _initializeHero();\n    heroes[msg.sender] = newHero;\n    return newHero;\n  }\n\n}\n",
  "sourcePath": "/Users/beeleethebee/Documents/web3/test_dapp/contracts/PlayerContract.sol",
  "compiler": {
    "name": "solc",
    "version": "0.8.15+commit.e14f2714.Emscripten.clang"
  },
  "schemaVersion": "3.4.8",
  "updatedAt": "2022-08-24T10:39:42.167Z",
  "networkType": "ethereum",
  "devdoc": {
    "kind": "dev",
    "methods": {},
    "version": 1
  },
  "userdoc": {
    "kind": "user",
    "methods": {},
    "version": 1
  }
}