{
  "contractName": "PlayerContract",
  "abi": [
    {
      "inputs": [
        {
          "internalType": "address",
          "name": "",
          "type": "address"
        }
      ],
      "name": "heroes",
      "outputs": [
        {
          "internalType": "string",
          "name": "name",
          "type": "string"
        },
        {
          "internalType": "uint16",
          "name": "lifePoint",
          "type": "uint16"
        },
        {
          "internalType": "uint16",
          "name": "wins",
          "type": "uint16"
        },
        {
          "internalType": "uint8",
          "name": "level",
          "type": "uint8"
        },
        {
          "internalType": "uint8",
          "name": "attack",
          "type": "uint8"
        },
        {
          "internalType": "uint8",
          "name": "defense",
          "type": "uint8"
        },
        {
          "internalType": "uint8",
          "name": "speed",
          "type": "uint8"
        },
        {
          "internalType": "uint8",
          "name": "luck",
          "type": "uint8"
        },
        {
          "internalType": "uint8",
          "name": "attributePoints",
          "type": "uint8"
        }
      ],
      "stateMutability": "view",
      "type": "function",
      "constant": true
    },
    {
      "inputs": [
        {
          "internalType": "uint8",
          "name": "_attack",
          "type": "uint8"
        },
        {
          "internalType": "uint8",
          "name": "_defense",
          "type": "uint8"
        },
        {
          "internalType": "uint8",
          "name": "_speed",
          "type": "uint8"
        },
        {
          "internalType": "uint8",
          "name": "_luck",
          "type": "uint8"
        }
      ],
      "name": "incrementAttributes",
      "outputs": [],
      "stateMutability": "nonpayable",
      "type": "function"
    },
    {
      "inputs": [
        {
          "internalType": "string",
          "name": "_newName",
          "type": "string"
        }
      ],
      "name": "updateName",
      "outputs": [],
      "stateMutability": "payable",
      "type": "function",
      "payable": true
    },
    {
      "inputs": [],
      "name": "getMyHero",
      "outputs": [
        {
          "components": [
            {
              "internalType": "string",
              "name": "name",
              "type": "string"
            },
            {
              "internalType": "uint16",
              "name": "lifePoint",
              "type": "uint16"
            },
            {
              "internalType": "uint16",
              "name": "wins",
              "type": "uint16"
            },
            {
              "internalType": "uint8",
              "name": "level",
              "type": "uint8"
            },
            {
              "internalType": "uint8",
              "name": "attack",
              "type": "uint8"
            },
            {
              "internalType": "uint8",
              "name": "defense",
              "type": "uint8"
            },
            {
              "internalType": "uint8",
              "name": "speed",
              "type": "uint8"
            },
            {
              "internalType": "uint8",
              "name": "luck",
              "type": "uint8"
            },
            {
              "internalType": "uint8",
              "name": "attributePoints",
              "type": "uint8"
            }
          ],
          "internalType": "struct HeroContract.Hero",
          "name": "hero",
          "type": "tuple"
        },
        {
          "internalType": "string",
          "name": "status",
          "type": "string"
        }
      ],
      "stateMutability": "view",
      "type": "function",
      "constant": true
    },
    {
      "inputs": [
        {
          "internalType": "address",
          "name": "_address",
          "type": "address"
        }
      ],
      "name": "getHero",
      "outputs": [
        {
          "components": [
            {
              "internalType": "string",
              "name": "name",
              "type": "string"
            },
            {
              "internalType": "uint16",
              "name": "lifePoint",
              "type": "uint16"
            },
            {
              "internalType": "uint16",
              "name": "wins",
              "type": "uint16"
            },
            {
              "internalType": "uint8",
              "name": "level",
              "type": "uint8"
            },
            {
              "internalType": "uint8",
              "name": "attack",
              "type": "uint8"
            },
            {
              "internalType": "uint8",
              "name": "defense",
              "type": "uint8"
            },
            {
              "internalType": "uint8",
              "name": "speed",
              "type": "uint8"
            },
            {
              "internalType": "uint8",
              "name": "luck",
              "type": "uint8"
            },
            {
              "internalType": "uint8",
              "name": "attributePoints",
              "type": "uint8"
            }
          ],
          "internalType": "struct HeroContract.Hero",
          "name": "hero",
          "type": "tuple"
        },
        {
          "internalType": "string",
          "name": "status",
          "type": "string"
        }
      ],
      "stateMutability": "view",
      "type": "function",
      "constant": true
    },
    {
      "inputs": [],
      "name": "burnHero",
      "outputs": [
        {
          "internalType": "bool",
          "name": "",
          "type": "bool"
        }
      ],
      "stateMutability": "nonpayable",
      "type": "function"
    },
    {
      "inputs": [],
      "name": "createHero",
      "outputs": [
        {
          "components": [
            {
              "internalType": "string",
              "name": "name",
              "type": "string"
            },
            {
              "internalType": "uint16",
              "name": "lifePoint",
              "type": "uint16"
            },
            {
              "internalType": "uint16",
              "name": "wins",
              "type": "uint16"
            },
            {
              "internalType": "uint8",
              "name": "level",
              "type": "uint8"
            },
            {
              "internalType": "uint8",
              "name": "attack",
              "type": "uint8"
            },
            {
              "internalType": "uint8",
              "name": "defense",
              "type": "uint8"
            },
            {
              "internalType": "uint8",
              "name": "speed",
              "type": "uint8"
            },
            {
              "internalType": "uint8",
              "name": "luck",
              "type": "uint8"
            },
            {
              "internalType": "uint8",
              "name": "attributePoints",
              "type": "uint8"
            }
          ],
          "internalType": "struct HeroContract.Hero",
          "name": "",
          "type": "tuple"
        }
      ],
      "stateMutability": "nonpayable",
      "type": "function"
    }
  ],
  "bytecode": "0x608060405234801561001057600080fd5b50611c67806100206000396000f3fe6080604052600436106100705760003560e01c80637f026d761161004e5780637f026d761461010857806384da92a71461014d578063a80d3e6e14610169578063b5c225a31461019457610070565b806327df259a146100755780633fba1399146100b357806362c84fc0146100df575b600080fd5b34801561008157600080fd5b5061009c600480360381019061009791906111cd565b6101bf565b6040516100aa9291906113db565b60405180910390f35b3480156100bf57600080fd5b506100c8610426565b6040516100d69291906113db565b60405180910390f35b3480156100eb57600080fd5b506101066004803603810190610101919061143e565b61068c565b005b34801561011457600080fd5b5061012f600480360381019061012a91906111cd565b610a3d565b604051610144999897969594939291906114c3565b60405180910390f35b610167600480360381019061016291906115bc565b610b7d565b005b34801561017557600080fd5b5061017e610c79565b60405161018b9190611609565b60405180910390f35b3480156101a057600080fd5b506101a9610e57565b6040516101b69190611646565b60405180910390f35b6101c76110a2565b606060008060008573ffffffffffffffffffffffffffffffffffffffff1673ffffffffffffffffffffffffffffffffffffffff1681526020019081526020016000206040518061012001604052908160008201805461022590611690565b80601f016020809104026020016040519081016040528092919081815260200182805461025190611690565b801561029e5780601f106102735761010080835404028352916020019161029e565b820191906000526020600020905b81548152906001019060200180831161028157829003601f168201915b505050505081526020016001820160009054906101000a900461ffff1661ffff1661ffff1681526020016001820160029054906101000a900461ffff1661ffff1661ffff1681526020016001820160049054906101000a900460ff1660ff1660ff1681526020016001820160059054906101000a900460ff1660ff1660ff1681526020016001820160069054906101000a900460ff1660ff1660ff1681526020016001820160079054906101000a900460ff1660ff1660ff1681526020016001820160089054906101000a900460ff1660ff1660ff1681526020016001820160099054906101000a900460ff1660ff1660ff168152505090506000816060015160ff1611156103e7578092506040518060400160405280600781526020017f73756363657373000000000000000000000000000000000000000000000000008152509150610420565b6040518060400160405280600581526020017f6572726f7200000000000000000000000000000000000000000000000000000081525091505b50915091565b61042e6110a2565b606060008060003373ffffffffffffffffffffffffffffffffffffffff1673ffffffffffffffffffffffffffffffffffffffff1681526020019081526020016000206040518061012001604052908160008201805461048c90611690565b80601f01602080910402602001604051908101604052809291908181526020018280546104b890611690565b80156105055780601f106104da57610100808354040283529160200191610505565b820191906000526020600020905b8154815290600101906020018083116104e857829003601f168201915b505050505081526020016001820160009054906101000a900461ffff1661ffff1661ffff1681526020016001820160029054906101000a900461ffff1661ffff1661ffff1681526020016001820160049054906101000a900460ff1660ff1660ff1681526020016001820160059054906101000a900460ff1660ff1660ff1681526020016001820160069054906101000a900460ff1660ff1660ff1681526020016001820160079054906101000a900460ff1660ff1660ff1681526020016001820160089054906101000a900460ff1660ff1660ff1681526020016001820160099054906101000a900460ff1660ff1660ff168152505090506000816060015160ff16111561064e578092506040518060400160405280600781526020017f73756363657373000000000000000000000000000000000000000000000000008152509150610687565b6040518060400160405280600581526020017f6572726f7200000000000000000000000000000000000000000000000000000081525091505b509091565b60008060003373ffffffffffffffffffffffffffffffffffffffff1673ffffffffffffffffffffffffffffffffffffffff16815260200190815260200160002060010160049054906101000a900460ff1660ff16116106ea57600080fd5b6000818385876106fa91906116f0565b61070491906116f0565b61070e91906116f0565b90506000803373ffffffffffffffffffffffffffffffffffffffff1673ffffffffffffffffffffffffffffffffffffffff16815260200190815260200160002060010160099054906101000a900460ff1660ff168160ff1611156107a7576040517f08c379a000000000000000000000000000000000000000000000000000000000815260040161079e90611773565b60405180910390fd5b60008160ff16116107ed576040517f08c379a00000000000000000000000000000000000000000000000000000000081526004016107e4906117df565b60405180910390fd5b846000803373ffffffffffffffffffffffffffffffffffffffff1673ffffffffffffffffffffffffffffffffffffffff16815260200190815260200160002060010160058282829054906101000a900460ff1661084a91906116f0565b92506101000a81548160ff021916908360ff160217905550836000803373ffffffffffffffffffffffffffffffffffffffff1673ffffffffffffffffffffffffffffffffffffffff16815260200190815260200160002060010160068282829054906101000a900460ff166108bf91906116f0565b92506101000a81548160ff021916908360ff160217905550826000803373ffffffffffffffffffffffffffffffffffffffff1673ffffffffffffffffffffffffffffffffffffffff16815260200190815260200160002060010160078282829054906101000a900460ff1661093491906116f0565b92506101000a81548160ff021916908360ff160217905550836000803373ffffffffffffffffffffffffffffffffffffffff1673ffffffffffffffffffffffffffffffffffffffff16815260200190815260200160002060010160068282829054906101000a900460ff166109a991906116f0565b92506101000a81548160ff021916908360ff160217905550806000803373ffffffffffffffffffffffffffffffffffffffff1673ffffffffffffffffffffffffffffffffffffffff16815260200190815260200160002060010160098282829054906101000a900460ff16610a1e91906117ff565b92506101000a81548160ff021916908360ff1602179055505050505050565b6000602052806000526040600020600091509050806000018054610a6090611690565b80601f0160208091040260200160405190810160405280929190818152602001828054610a8c90611690565b8015610ad95780601f10610aae57610100808354040283529160200191610ad9565b820191906000526020600020905b815481529060010190602001808311610abc57829003601f168201915b5050505050908060010160009054906101000a900461ffff16908060010160029054906101000a900461ffff16908060010160049054906101000a900460ff16908060010160059054906101000a900460ff16908060010160069054906101000a900460ff16908060010160079054906101000a900460ff16908060010160089054906101000a900460ff16908060010160099054906101000a900460ff16905089565b60008060003373ffffffffffffffffffffffffffffffffffffffff1673ffffffffffffffffffffffffffffffffffffffff16815260200190815260200160002060010160049054906101000a900460ff1660ff1611610bdb57600080fd5b66038d7ea4c680003414610c24576040517f08c379a0000000000000000000000000000000000000000000000000000000008152600401610c1b9061187f565b60405180910390fd5b81816000803373ffffffffffffffffffffffffffffffffffffffff1673ffffffffffffffffffffffffffffffffffffffff1681526020019081526020016000206000019182610c74929190611a8f565b505050565b610c816110a2565b60008060003373ffffffffffffffffffffffffffffffffffffffff1673ffffffffffffffffffffffffffffffffffffffff16815260200190815260200160002060010160049054906101000a900460ff1660ff1614610cdf57600080fd5b6000610ce9610fb0565b9050806000803373ffffffffffffffffffffffffffffffffffffffff1673ffffffffffffffffffffffffffffffffffffffff1681526020019081526020016000206000820151816000019081610d3f9190611b5f565b5060208201518160010160006101000a81548161ffff021916908361ffff16021790555060408201518160010160026101000a81548161ffff021916908361ffff16021790555060608201518160010160046101000a81548160ff021916908360ff16021790555060808201518160010160056101000a81548160ff021916908360ff16021790555060a08201518160010160066101000a81548160ff021916908360ff16021790555060c08201518160010160076101000a81548160ff021916908360ff16021790555060e08201518160010160086101000a81548160ff021916908360ff1602179055506101008201518160010160096101000a81548160ff021916908360ff1602179055509050508091505090565b6000806000803373ffffffffffffffffffffffffffffffffffffffff1673ffffffffffffffffffffffffffffffffffffffff16815260200190815260200160002060010160049054906101000a900460ff1660ff1611610eb657600080fd5b6000803373ffffffffffffffffffffffffffffffffffffffff1673ffffffffffffffffffffffffffffffffffffffff16815260200190815260200160002060008082016000610f059190611108565b6001820160006101000a81549061ffff02191690556001820160026101000a81549061ffff02191690556001820160046101000a81549060ff02191690556001820160056101000a81549060ff02191690556001820160066101000a81549060ff02191690556001820160076101000a81549060ff02191690556001820160086101000a81549060ff02191690556001820160096101000a81549060ff021916905550506001905090565b610fb86110a2565b610fc06110a2565b6040518060400160405280600481526020017f4865726f0000000000000000000000000000000000000000000000000000000081525081600001819052506001816060019060ff16908160ff16815250506005816080019060ff16908160ff168152505060058160a0019060ff16908160ff168152505060058160c0019060ff16908160ff168152505060058160e0019060ff16908160ff1681525050601e816020019061ffff16908161ffff16815250506000816040019061ffff16908161ffff1681525050600a81610100019060ff16908160ff16815250508091505090565b60405180610120016040528060608152602001600061ffff168152602001600061ffff168152602001600060ff168152602001600060ff168152602001600060ff168152602001600060ff168152602001600060ff168152602001600060ff1681525090565b50805461111490611690565b6000825580601f106111265750611145565b601f0160209004906000526020600020908101906111449190611148565b5b50565b5b80821115611161576000816000905550600101611149565b5090565b600080fd5b600080fd5b600073ffffffffffffffffffffffffffffffffffffffff82169050919050565b600061119a8261116f565b9050919050565b6111aa8161118f565b81146111b557600080fd5b50565b6000813590506111c7816111a1565b92915050565b6000602082840312156111e3576111e2611165565b5b60006111f1848285016111b8565b91505092915050565b600081519050919050565b600082825260208201905092915050565b60005b83811015611234578082015181840152602081019050611219565b83811115611243576000848401525b50505050565b6000601f19601f8301169050919050565b6000611265826111fa565b61126f8185611205565b935061127f818560208601611216565b61128881611249565b840191505092915050565b600061ffff82169050919050565b6112aa81611293565b82525050565b600060ff82169050919050565b6112c6816112b0565b82525050565b60006101208301600083015184820360008601526112ea828261125a565b91505060208301516112ff60208601826112a1565b50604083015161131260408601826112a1565b50606083015161132560608601826112bd565b50608083015161133860808601826112bd565b5060a083015161134b60a08601826112bd565b5060c083015161135e60c08601826112bd565b5060e083015161137160e08601826112bd565b506101008301516113866101008601826112bd565b508091505092915050565b600082825260208201905092915050565b60006113ad826111fa565b6113b78185611391565b93506113c7818560208601611216565b6113d081611249565b840191505092915050565b600060408201905081810360008301526113f581856112cc565b9050818103602083015261140981846113a2565b90509392505050565b61141b816112b0565b811461142657600080fd5b50565b60008135905061143881611412565b92915050565b6000806000806080858703121561145857611457611165565b5b600061146687828801611429565b945050602061147787828801611429565b935050604061148887828801611429565b925050606061149987828801611429565b91505092959194509250565b6114ae81611293565b82525050565b6114bd816112b0565b82525050565b60006101208201905081810360008301526114de818c6113a2565b90506114ed602083018b6114a5565b6114fa604083018a6114a5565b61150760608301896114b4565b61151460808301886114b4565b61152160a08301876114b4565b61152e60c08301866114b4565b61153b60e08301856114b4565b6115496101008301846114b4565b9a9950505050505050505050565b600080fd5b600080fd5b600080fd5b60008083601f84011261157c5761157b611557565b5b8235905067ffffffffffffffff8111156115995761159861155c565b5b6020830191508360018202830111156115b5576115b4611561565b5b9250929050565b600080602083850312156115d3576115d2611165565b5b600083013567ffffffffffffffff8111156115f1576115f061116a565b5b6115fd85828601611566565b92509250509250929050565b6000602082019050818103600083015261162381846112cc565b905092915050565b60008115159050919050565b6116408161162b565b82525050565b600060208201905061165b6000830184611637565b92915050565b7f4e487b7100000000000000000000000000000000000000000000000000000000600052602260045260246000fd5b600060028204905060018216806116a857607f821691505b6020821081036116bb576116ba611661565b5b50919050565b7f4e487b7100000000000000000000000000000000000000000000000000000000600052601160045260246000fd5b60006116fb826112b0565b9150611706836112b0565b92508260ff0382111561171c5761171b6116c1565b5b828201905092915050565b7f4e6f7420656e6f7567682061747472696275746520706f696e74730000000000600082015250565b600061175d601b83611391565b915061176882611727565b602082019050919050565b6000602082019050818103600083015261178c81611750565b9050919050565b7f4e6f2061747472696275746520706f696e747320746f20696e6372656d656e74600082015250565b60006117c9602083611391565b91506117d482611793565b602082019050919050565b600060208201905081810360008301526117f8816117bc565b9050919050565b600061180a826112b0565b9150611815836112b0565b925082821015611828576118276116c1565b5b828203905092915050565b7f4e6f7420656e6f75676820657468657200000000000000000000000000000000600082015250565b6000611869601083611391565b915061187482611833565b602082019050919050565b600060208201905081810360008301526118988161185c565b9050919050565b600082905092915050565b7f4e487b7100000000000000000000000000000000000000000000000000000000600052604160045260246000fd5b60008190508160005260206000209050919050565b60006020601f8301049050919050565b600082821b905092915050565b60006008830261193b7fffffffffffffffffffffffffffffffffffffffffffffffffffffffffffffffff826118fe565b61194586836118fe565b95508019841693508086168417925050509392505050565b6000819050919050565b6000819050919050565b600061198c6119876119828461195d565b611967565b61195d565b9050919050565b6000819050919050565b6119a683611971565b6119ba6119b282611993565b84845461190b565b825550505050565b600090565b6119cf6119c2565b6119da81848461199d565b505050565b5b818110156119fe576119f36000826119c7565b6001810190506119e0565b5050565b601f821115611a4357611a14816118d9565b611a1d846118ee565b81016020851015611a2c578190505b611a40611a38856118ee565b8301826119df565b50505b505050565b600082821c905092915050565b6000611a6660001984600802611a48565b1980831691505092915050565b6000611a7f8383611a55565b9150826002028217905092915050565b611a99838361189f565b67ffffffffffffffff811115611ab257611ab16118aa565b5b611abc8254611690565b611ac7828285611a02565b6000601f831160018114611af65760008415611ae4578287013590505b611aee8582611a73565b865550611b56565b601f198416611b04866118d9565b60005b82811015611b2c57848901358255600182019150602085019450602081019050611b07565b86831015611b495784890135611b45601f891682611a55565b8355505b6001600288020188555050505b50505050505050565b611b68826111fa565b67ffffffffffffffff811115611b8157611b806118aa565b5b611b8b8254611690565b611b96828285611a02565b600060209050601f831160018114611bc95760008415611bb7578287015190505b611bc18582611a73565b865550611c29565b601f198416611bd7866118d9565b60005b82811015611bff57848901518255600182019150602085019450602081019050611bda565b86831015611c1c5784890151611c18601f891682611a55565b8355505b6001600288020188555050505b50505050505056fea2646970667358221220197b3e6b0b08539c2756038ad08c47f7a47289fdfe362121fdfe972df253684364736f6c634300080f0033",
  "immutableReferences": {},
  "source": "// SPDX-License-Identifier: MIT\npragma solidity >=0.4.22 <0.9.0;\n\nimport \"./HeroContract.sol\";\n\ncontract PlayerContract is HeroContract {\n\n  function incrementAttributes(uint8 _attack, uint8 _defense, uint8 _speed, uint8 _luck) external hasHero {\n    uint8 sum = _attack + _defense + _speed + _luck;\n    require(sum <= heroes[msg.sender].attributePoints, \"Not enough attribute points\");\n    require(sum > 0, \"No attribute points to increment\");\n    heroes[msg.sender].attack += _attack;\n    heroes[msg.sender].defense += _defense;\n    heroes[msg.sender].speed += _speed;\n    heroes[msg.sender].defense += _defense;\n    heroes[msg.sender].attributePoints -= sum;\n  }\n\n  function updateName(string calldata _newName) payable external hasHero {\n    require(msg.value == 0.001 ether, \"Not enough ether\");\n    heroes[msg.sender].name = _newName;\n  }\n\n  function getMyHero() external view returns (Hero memory hero, string memory status) {\n    Hero memory senderHero = heroes[msg.sender];\n    if (senderHero.level > 0) {\n      hero = senderHero;\n      status = \"success\";\n    } else {\n      status = \"error\";\n    }\n  }\n\n  function getHero(address _address) external view returns (Hero memory hero, string memory status) {\n    Hero memory senderHero = heroes[_address];\n    if (senderHero.level > 0) {\n      hero = senderHero;\n      status = \"success\";\n    } else {\n      status = \"error\";\n    }\n  }\n\n  function burnHero() external hasHero returns (bool) {\n    delete heroes[msg.sender];\n    return true;\n  }\n\n  function createHero() external hasNotHero returns (Hero memory)  {\n    Hero memory newHero = _initializeHero();\n    heroes[msg.sender] = newHero;\n    return newHero;\n  }\n\n}\n",
  "sourcePath": "/Users/beeleethebee/Documents/web3/test_dapp/contracts/PlayerContract.sol",
  "compiler": {
    "name": "solc",
    "version": "0.8.15+commit.e14f2714.Emscripten.clang"
  },
  "schemaVersion": "3.4.8",
  "updatedAt": "2022-08-25T14:06:55.016Z",
  "networkType": "ethereum",
  "devdoc": {
    "kind": "dev",
    "methods": {},
    "version": 1
  },
  "userdoc": {
    "kind": "user",
    "methods": {},
    "version": 1
  }
}