{
  "contractName": "PlayerContract",
  "abi": [
    {
      "inputs": [
        {
          "internalType": "address",
          "name": "",
          "type": "address"
        }
      ],
      "name": "heroes",
      "outputs": [
        {
          "internalType": "string",
          "name": "name",
          "type": "string"
        },
        {
          "internalType": "uint8",
          "name": "level",
          "type": "uint8"
        },
        {
          "internalType": "uint8",
          "name": "attack",
          "type": "uint8"
        },
        {
          "internalType": "uint8",
          "name": "defense",
          "type": "uint8"
        },
        {
          "internalType": "uint8",
          "name": "speed",
          "type": "uint8"
        },
        {
          "internalType": "uint8",
          "name": "luck",
          "type": "uint8"
        },
        {
          "internalType": "uint16",
          "name": "lifePoint",
          "type": "uint16"
        },
        {
          "internalType": "uint16",
          "name": "wins",
          "type": "uint16"
        }
      ],
      "stateMutability": "view",
      "type": "function",
      "constant": true
    },
    {
      "inputs": [],
      "name": "getMyHero",
      "outputs": [
        {
          "components": [
            {
              "internalType": "string",
              "name": "name",
              "type": "string"
            },
            {
              "internalType": "uint8",
              "name": "level",
              "type": "uint8"
            },
            {
              "internalType": "uint8",
              "name": "attack",
              "type": "uint8"
            },
            {
              "internalType": "uint8",
              "name": "defense",
              "type": "uint8"
            },
            {
              "internalType": "uint8",
              "name": "speed",
              "type": "uint8"
            },
            {
              "internalType": "uint8",
              "name": "luck",
              "type": "uint8"
            },
            {
              "internalType": "uint16",
              "name": "lifePoint",
              "type": "uint16"
            },
            {
              "internalType": "uint16",
              "name": "wins",
              "type": "uint16"
            }
          ],
          "internalType": "struct PlayerContract.Hero",
          "name": "hero",
          "type": "tuple"
        },
        {
          "internalType": "string",
          "name": "status",
          "type": "string"
        }
      ],
      "stateMutability": "view",
      "type": "function",
      "constant": true
    },
    {
      "inputs": [],
      "name": "createHero",
      "outputs": [
        {
          "components": [
            {
              "internalType": "string",
              "name": "name",
              "type": "string"
            },
            {
              "internalType": "uint8",
              "name": "level",
              "type": "uint8"
            },
            {
              "internalType": "uint8",
              "name": "attack",
              "type": "uint8"
            },
            {
              "internalType": "uint8",
              "name": "defense",
              "type": "uint8"
            },
            {
              "internalType": "uint8",
              "name": "speed",
              "type": "uint8"
            },
            {
              "internalType": "uint8",
              "name": "luck",
              "type": "uint8"
            },
            {
              "internalType": "uint16",
              "name": "lifePoint",
              "type": "uint16"
            },
            {
              "internalType": "uint16",
              "name": "wins",
              "type": "uint16"
            }
          ],
          "internalType": "struct PlayerContract.Hero",
          "name": "",
          "type": "tuple"
        }
      ],
      "stateMutability": "nonpayable",
      "type": "function"
    }
  ],
  "bytecode": "0x608060405234801561001057600080fd5b50610d51806100206000396000f3fe608060405234801561001057600080fd5b50600436106100415760003560e01c80633fba1399146100465780637f026d7614610065578063a80d3e6e1461009c575b600080fd5b61004e6100ba565b60405161005c929190610878565b60405180910390f35b61007f600480360381019061007a9190610912565b610302565b60405161009398979695949392919061095d565b60405180910390f35b6100a461042f565b6040516100b191906109e2565b60405180910390f35b6100c2610650565b606060008060003373ffffffffffffffffffffffffffffffffffffffff1673ffffffffffffffffffffffffffffffffffffffff1681526020019081526020016000206040518061010001604052908160008201805461012090610a33565b80601f016020809104026020016040519081016040528092919081815260200182805461014c90610a33565b80156101995780601f1061016e57610100808354040283529160200191610199565b820191906000526020600020905b81548152906001019060200180831161017c57829003601f168201915b505050505081526020016001820160009054906101000a900460ff1660ff1660ff1681526020016001820160019054906101000a900460ff1660ff1660ff1681526020016001820160029054906101000a900460ff1660ff1660ff1681526020016001820160039054906101000a900460ff1660ff1660ff1681526020016001820160049054906101000a900460ff1660ff1660ff1681526020016001820160059054906101000a900461ffff1661ffff1661ffff1681526020016001820160079054906101000a900461ffff1661ffff1661ffff168152505090506000816020015160ff16146102c4578092506040518060400160405280600781526020017f737563636573730000000000000000000000000000000000000000000000000081525091506102fd565b6040518060400160405280600581526020017f6572726f7200000000000000000000000000000000000000000000000000000081525091505b509091565b600060205280600052604060002060009150905080600001805461032590610a33565b80601f016020809104026020016040519081016040528092919081815260200182805461035190610a33565b801561039e5780601f106103735761010080835404028352916020019161039e565b820191906000526020600020905b81548152906001019060200180831161038157829003601f168201915b5050505050908060010160009054906101000a900460ff16908060010160019054906101000a900460ff16908060010160029054906101000a900460ff16908060010160039054906101000a900460ff16908060010160049054906101000a900460ff16908060010160059054906101000a900461ffff16908060010160079054906101000a900461ffff16905088565b610437610650565b61043f610650565b6040518060400160405280600481526020017f4865726f0000000000000000000000000000000000000000000000000000000081525081600001819052506001816020019060ff16908160ff16815250506001816040019060ff16908160ff16815250506001816060019060ff16908160ff16815250506001816080019060ff16908160ff168152505060018160a0019060ff16908160ff168152505060648160c0019061ffff16908161ffff168152505060008160e0019061ffff16908161ffff1681525050806000803373ffffffffffffffffffffffffffffffffffffffff1673ffffffffffffffffffffffffffffffffffffffff168152602001908152602001600020600082015181600001908161055a9190610c49565b5060208201518160010160006101000a81548160ff021916908360ff16021790555060408201518160010160016101000a81548160ff021916908360ff16021790555060608201518160010160026101000a81548160ff021916908360ff16021790555060808201518160010160036101000a81548160ff021916908360ff16021790555060a08201518160010160046101000a81548160ff021916908360ff16021790555060c08201518160010160056101000a81548161ffff021916908361ffff16021790555060e08201518160010160076101000a81548161ffff021916908361ffff1602179055509050508091505090565b60405180610100016040528060608152602001600060ff168152602001600060ff168152602001600060ff168152602001600060ff168152602001600060ff168152602001600061ffff168152602001600061ffff1681525090565b600081519050919050565b600082825260208201905092915050565b60005b838110156106e65780820151818401526020810190506106cb565b838111156106f5576000848401525b50505050565b6000601f19601f8301169050919050565b6000610717826106ac565b61072181856106b7565b93506107318185602086016106c8565b61073a816106fb565b840191505092915050565b600060ff82169050919050565b61075b81610745565b82525050565b600061ffff82169050919050565b61077881610761565b82525050565b600061010083016000830151848203600086015261079c828261070c565b91505060208301516107b16020860182610752565b5060408301516107c46040860182610752565b5060608301516107d76060860182610752565b5060808301516107ea6080860182610752565b5060a08301516107fd60a0860182610752565b5060c083015161081060c086018261076f565b5060e083015161082360e086018261076f565b508091505092915050565b600082825260208201905092915050565b600061084a826106ac565b610854818561082e565b93506108648185602086016106c8565b61086d816106fb565b840191505092915050565b60006040820190508181036000830152610892818561077e565b905081810360208301526108a6818461083f565b90509392505050565b600080fd5b600073ffffffffffffffffffffffffffffffffffffffff82169050919050565b60006108df826108b4565b9050919050565b6108ef816108d4565b81146108fa57600080fd5b50565b60008135905061090c816108e6565b92915050565b600060208284031215610928576109276108af565b5b6000610936848285016108fd565b91505092915050565b61094881610745565b82525050565b61095781610761565b82525050565b6000610100820190508181036000830152610978818b61083f565b9050610987602083018a61093f565b610994604083018961093f565b6109a1606083018861093f565b6109ae608083018761093f565b6109bb60a083018661093f565b6109c860c083018561094e565b6109d560e083018461094e565b9998505050505050505050565b600060208201905081810360008301526109fc818461077e565b905092915050565b7f4e487b7100000000000000000000000000000000000000000000000000000000600052602260045260246000fd5b60006002820490506001821680610a4b57607f821691505b602082108103610a5e57610a5d610a04565b5b50919050565b7f4e487b7100000000000000000000000000000000000000000000000000000000600052604160045260246000fd5b60008190508160005260206000209050919050565b60006020601f8301049050919050565b600082821b905092915050565b600060088302610af57fffffffffffffffffffffffffffffffffffffffffffffffffffffffffffffffff82610ab8565b610aff8683610ab8565b95508019841693508086168417925050509392505050565b6000819050919050565b6000819050919050565b6000610b46610b41610b3c84610b17565b610b21565b610b17565b9050919050565b6000819050919050565b610b6083610b2b565b610b74610b6c82610b4d565b848454610ac5565b825550505050565b600090565b610b89610b7c565b610b94818484610b57565b505050565b5b81811015610bb857610bad600082610b81565b600181019050610b9a565b5050565b601f821115610bfd57610bce81610a93565b610bd784610aa8565b81016020851015610be6578190505b610bfa610bf285610aa8565b830182610b99565b50505b505050565b600082821c905092915050565b6000610c2060001984600802610c02565b1980831691505092915050565b6000610c398383610c0f565b9150826002028217905092915050565b610c52826106ac565b67ffffffffffffffff811115610c6b57610c6a610a64565b5b610c758254610a33565b610c80828285610bbc565b600060209050601f831160018114610cb35760008415610ca1578287015190505b610cab8582610c2d565b865550610d13565b601f198416610cc186610a93565b60005b82811015610ce957848901518255600182019150602085019450602081019050610cc4565b86831015610d065784890151610d02601f891682610c0f565b8355505b6001600288020188555050505b50505050505056fea26469706673582212209306013d10a01ed7a96a7a6094f14004df8cfe234acb692ad5c1569c261af5a264736f6c634300080f0033",
  "immutableReferences": {},
  "source": "// SPDX-License-Identifier: MIT\npragma solidity >=0.4.22 <0.9.0;\n\ncontract PlayerContract {\n  struct Hero {\n    string name;\n    uint8 level;\n    uint8 attack;\n    uint8 defense;\n    uint8 speed;\n    uint8 luck;\n    uint16 lifePoint;\n    uint16 wins;\n  }\n\n  mapping(address => Hero) public heroes;\n\n  modifier hasHero() {\n    require(heroes[msg.sender].level != 0);\n    _;\n  }\n\n  modifier hasNotHero() {\n    require(heroes[msg.sender].level == 0);\n    _;\n  }\n\n  function getMyHero() external view returns (Hero memory hero, string memory status) {\n    Hero memory senderHero = heroes[msg.sender];\n    if (senderHero.level != 0) {\n      hero = senderHero;\n      status = \"success\";\n    } else {\n      status = \"error\";\n    }\n  }\n\n  function createHero() public returns (Hero memory)  {\n    Hero memory newHero;\n    newHero.name = \"Hero\";\n    newHero.level = 1;\n    newHero.attack = 1;\n    newHero.defense = 1;\n    newHero.speed = 1;\n    newHero.luck = 1;\n    newHero.lifePoint = 100;\n    newHero.wins = 0;\n    heroes[msg.sender] = newHero;\n    return newHero;\n  }\n\n}\n",
  "sourcePath": "/Users/beeleethebee/Documents/web3/test_dapp/contracts/PlayerContract.sol",
  "compiler": {
    "name": "solc",
    "version": "0.8.15+commit.e14f2714.Emscripten.clang"
  },
  "schemaVersion": "3.4.8",
  "updatedAt": "2022-08-20T21:44:25.397Z",
  "networkType": "ethereum",
  "devdoc": {
    "kind": "dev",
    "methods": {},
    "version": 1
  },
  "userdoc": {
    "kind": "user",
    "methods": {},
    "version": 1
  }
}