{
  "contractName": "PlayerContract",
  "abi": [
    {
      "inputs": [
        {
          "internalType": "address",
          "name": "",
          "type": "address"
        }
      ],
      "name": "heroes",
      "outputs": [
        {
          "internalType": "string",
          "name": "name",
          "type": "string"
        },
        {
          "internalType": "uint8",
          "name": "level",
          "type": "uint8"
        },
        {
          "internalType": "uint8",
          "name": "attack",
          "type": "uint8"
        },
        {
          "internalType": "uint8",
          "name": "defense",
          "type": "uint8"
        },
        {
          "internalType": "uint8",
          "name": "speed",
          "type": "uint8"
        },
        {
          "internalType": "uint8",
          "name": "luck",
          "type": "uint8"
        },
        {
          "internalType": "uint8",
          "name": "attributePoints",
          "type": "uint8"
        },
        {
          "internalType": "uint16",
          "name": "lifePoint",
          "type": "uint16"
        },
        {
          "internalType": "uint16",
          "name": "wins",
          "type": "uint16"
        }
      ],
      "stateMutability": "view",
      "type": "function",
      "constant": true
    },
    {
      "inputs": [
        {
          "internalType": "uint8",
          "name": "_attack",
          "type": "uint8"
        },
        {
          "internalType": "uint8",
          "name": "_defense",
          "type": "uint8"
        },
        {
          "internalType": "uint8",
          "name": "_speed",
          "type": "uint8"
        },
        {
          "internalType": "uint8",
          "name": "_luck",
          "type": "uint8"
        }
      ],
      "name": "incrementAttributes",
      "outputs": [],
      "stateMutability": "nonpayable",
      "type": "function"
    },
    {
      "inputs": [],
      "name": "getMyHero",
      "outputs": [
        {
          "components": [
            {
              "internalType": "string",
              "name": "name",
              "type": "string"
            },
            {
              "internalType": "uint8",
              "name": "level",
              "type": "uint8"
            },
            {
              "internalType": "uint8",
              "name": "attack",
              "type": "uint8"
            },
            {
              "internalType": "uint8",
              "name": "defense",
              "type": "uint8"
            },
            {
              "internalType": "uint8",
              "name": "speed",
              "type": "uint8"
            },
            {
              "internalType": "uint8",
              "name": "luck",
              "type": "uint8"
            },
            {
              "internalType": "uint8",
              "name": "attributePoints",
              "type": "uint8"
            },
            {
              "internalType": "uint16",
              "name": "lifePoint",
              "type": "uint16"
            },
            {
              "internalType": "uint16",
              "name": "wins",
              "type": "uint16"
            }
          ],
          "internalType": "struct HeroContract.Hero",
          "name": "hero",
          "type": "tuple"
        },
        {
          "internalType": "string",
          "name": "status",
          "type": "string"
        }
      ],
      "stateMutability": "view",
      "type": "function",
      "constant": true
    },
    {
      "inputs": [],
      "name": "burnHero",
      "outputs": [
        {
          "internalType": "bool",
          "name": "",
          "type": "bool"
        }
      ],
      "stateMutability": "nonpayable",
      "type": "function"
    },
    {
      "inputs": [],
      "name": "createHero",
      "outputs": [
        {
          "components": [
            {
              "internalType": "string",
              "name": "name",
              "type": "string"
            },
            {
              "internalType": "uint8",
              "name": "level",
              "type": "uint8"
            },
            {
              "internalType": "uint8",
              "name": "attack",
              "type": "uint8"
            },
            {
              "internalType": "uint8",
              "name": "defense",
              "type": "uint8"
            },
            {
              "internalType": "uint8",
              "name": "speed",
              "type": "uint8"
            },
            {
              "internalType": "uint8",
              "name": "luck",
              "type": "uint8"
            },
            {
              "internalType": "uint8",
              "name": "attributePoints",
              "type": "uint8"
            },
            {
              "internalType": "uint16",
              "name": "lifePoint",
              "type": "uint16"
            },
            {
              "internalType": "uint16",
              "name": "wins",
              "type": "uint16"
            }
          ],
          "internalType": "struct HeroContract.Hero",
          "name": "",
          "type": "tuple"
        }
      ],
      "stateMutability": "nonpayable",
      "type": "function"
    }
  ],
  "bytecode": "0x608060405234801561001057600080fd5b506115c0806100206000396000f3fe608060405234801561001057600080fd5b50600436106100575760003560e01c80633fba13991461005c57806362c84fc01461007b5780637f026d7614610097578063a80d3e6e146100cf578063b5c225a3146100ed575b600080fd5b61006461010b565b604051610072929190610f09565b60405180910390f35b61009560048036038101906100909190610f71565b610370565b005b6100b160048036038101906100ac9190611036565b6106fc565b6040516100c699989796959493929190611081565b60405180910390f35b6100d761083c565b6040516100e49190611115565b60405180910390f35b6100f5610a1a565b6040516101029190611152565b60405180910390f35b610113610c65565b606060008060003373ffffffffffffffffffffffffffffffffffffffff1673ffffffffffffffffffffffffffffffffffffffff168152602001908152602001600020604051806101200160405290816000820180546101719061119c565b80601f016020809104026020016040519081016040528092919081815260200182805461019d9061119c565b80156101ea5780601f106101bf576101008083540402835291602001916101ea565b820191906000526020600020905b8154815290600101906020018083116101cd57829003601f168201915b505050505081526020016001820160009054906101000a900460ff1660ff1660ff1681526020016001820160019054906101000a900460ff1660ff1660ff1681526020016001820160029054906101000a900460ff1660ff1660ff1681526020016001820160039054906101000a900460ff1660ff1660ff1681526020016001820160049054906101000a900460ff1660ff1660ff1681526020016001820160059054906101000a900460ff1660ff1660ff1681526020016001820160069054906101000a900461ffff1661ffff1661ffff1681526020016001820160089054906101000a900461ffff1661ffff1661ffff168152505090506000816020015160ff1614610332578092506040518060400160405280600781526020017f7375636365737300000000000000000000000000000000000000000000000000815250915061036b565b6040518060400160405280600581526020017f6572726f7200000000000000000000000000000000000000000000000000000081525091505b509091565b60008060003373ffffffffffffffffffffffffffffffffffffffff1673ffffffffffffffffffffffffffffffffffffffff16815260200190815260200160002060010160009054906101000a900460ff1660ff16116103ce57600080fd5b6000818385876103de91906111fc565b6103e891906111fc565b6103f291906111fc565b905060008160ff161161040457600080fd5b60008060003373ffffffffffffffffffffffffffffffffffffffff1673ffffffffffffffffffffffffffffffffffffffff16815260200190815260200160002090508060010160059054906101000a900460ff1660ff168260ff1611156104a0576040517f08c379a00000000000000000000000000000000000000000000000000000000081526004016104979061127f565b60405180910390fd5b603260ff16868260010160019054906101000a900460ff166104c291906111fc565b60ff1611156104ee5760328160010160016101000a81548160ff021916908360ff160217905550610527565b858160010160018282829054906101000a900460ff1661050e91906111fc565b92506101000a81548160ff021916908360ff1602179055505b603260ff16858260010160029054906101000a900460ff1661054991906111fc565b60ff1611156105755760328160010160026101000a81548160ff021916908360ff1602179055506105ae565b848160010160028282829054906101000a900460ff1661059591906111fc565b92506101000a81548160ff021916908360ff1602179055505b603260ff16848260010160039054906101000a900460ff166105d091906111fc565b60ff1611156105fc5760328160010160036101000a81548160ff021916908360ff160217905550610635565b838160010160038282829054906101000a900460ff1661061c91906111fc565b92506101000a81548160ff021916908360ff1602179055505b603260ff16858260010160029054906101000a900460ff1661065791906111fc565b60ff1611156106835760328160010160026101000a81548160ff021916908360ff1602179055506106bc565b848160010160028282829054906101000a900460ff166106a391906111fc565b92506101000a81548160ff021916908360ff1602179055505b818160010160058282829054906101000a900460ff166106dc919061129f565b92506101000a81548160ff021916908360ff160217905550505050505050565b600060205280600052604060002060009150905080600001805461071f9061119c565b80601f016020809104026020016040519081016040528092919081815260200182805461074b9061119c565b80156107985780601f1061076d57610100808354040283529160200191610798565b820191906000526020600020905b81548152906001019060200180831161077b57829003601f168201915b5050505050908060010160009054906101000a900460ff16908060010160019054906101000a900460ff16908060010160029054906101000a900460ff16908060010160039054906101000a900460ff16908060010160049054906101000a900460ff16908060010160059054906101000a900460ff16908060010160069054906101000a900461ffff16908060010160089054906101000a900461ffff16905089565b610844610c65565b60008060003373ffffffffffffffffffffffffffffffffffffffff1673ffffffffffffffffffffffffffffffffffffffff16815260200190815260200160002060010160009054906101000a900460ff1660ff16146108a257600080fd5b60006108ac610b73565b9050806000803373ffffffffffffffffffffffffffffffffffffffff1673ffffffffffffffffffffffffffffffffffffffff168152602001908152602001600020600082015181600001908161090291906114b8565b5060208201518160010160006101000a81548160ff021916908360ff16021790555060408201518160010160016101000a81548160ff021916908360ff16021790555060608201518160010160026101000a81548160ff021916908360ff16021790555060808201518160010160036101000a81548160ff021916908360ff16021790555060a08201518160010160046101000a81548160ff021916908360ff16021790555060c08201518160010160056101000a81548160ff021916908360ff16021790555060e08201518160010160066101000a81548161ffff021916908361ffff1602179055506101008201518160010160086101000a81548161ffff021916908361ffff1602179055509050508091505090565b6000806000803373ffffffffffffffffffffffffffffffffffffffff1673ffffffffffffffffffffffffffffffffffffffff16815260200190815260200160002060010160009054906101000a900460ff1660ff1611610a7957600080fd5b6000803373ffffffffffffffffffffffffffffffffffffffff1673ffffffffffffffffffffffffffffffffffffffff16815260200190815260200160002060008082016000610ac89190610ccb565b6001820160006101000a81549060ff02191690556001820160016101000a81549060ff02191690556001820160026101000a81549060ff02191690556001820160036101000a81549060ff02191690556001820160046101000a81549060ff02191690556001820160056101000a81549060ff02191690556001820160066101000a81549061ffff02191690556001820160086101000a81549061ffff021916905550506001905090565b610b7b610c65565b610b83610c65565b6040518060400160405280600481526020017f4865726f0000000000000000000000000000000000000000000000000000000081525081600001819052506001816020019060ff16908160ff16815250506001816040019060ff16908160ff16815250506001816060019060ff16908160ff16815250506001816080019060ff16908160ff168152505060018160a0019060ff16908160ff168152505060648160e0019061ffff16908161ffff1681525050600081610100019061ffff16908161ffff1681525050600a8160c0019060ff16908160ff16815250508091505090565b60405180610120016040528060608152602001600060ff168152602001600060ff168152602001600060ff168152602001600060ff168152602001600060ff168152602001600060ff168152602001600061ffff168152602001600061ffff1681525090565b508054610cd79061119c565b6000825580601f10610ce95750610d08565b601f016020900490600052602060002090810190610d079190610d0b565b5b50565b5b80821115610d24576000816000905550600101610d0c565b5090565b600081519050919050565b600082825260208201905092915050565b60005b83811015610d62578082015181840152602081019050610d47565b83811115610d71576000848401525b50505050565b6000601f19601f8301169050919050565b6000610d9382610d28565b610d9d8185610d33565b9350610dad818560208601610d44565b610db681610d77565b840191505092915050565b600060ff82169050919050565b610dd781610dc1565b82525050565b600061ffff82169050919050565b610df481610ddd565b82525050565b6000610120830160008301518482036000860152610e188282610d88565b9150506020830151610e2d6020860182610dce565b506040830151610e406040860182610dce565b506060830151610e536060860182610dce565b506080830151610e666080860182610dce565b5060a0830151610e7960a0860182610dce565b5060c0830151610e8c60c0860182610dce565b5060e0830151610e9f60e0860182610deb565b50610100830151610eb4610100860182610deb565b508091505092915050565b600082825260208201905092915050565b6000610edb82610d28565b610ee58185610ebf565b9350610ef5818560208601610d44565b610efe81610d77565b840191505092915050565b60006040820190508181036000830152610f238185610dfa565b90508181036020830152610f378184610ed0565b90509392505050565b600080fd5b610f4e81610dc1565b8114610f5957600080fd5b50565b600081359050610f6b81610f45565b92915050565b60008060008060808587031215610f8b57610f8a610f40565b5b6000610f9987828801610f5c565b9450506020610faa87828801610f5c565b9350506040610fbb87828801610f5c565b9250506060610fcc87828801610f5c565b91505092959194509250565b600073ffffffffffffffffffffffffffffffffffffffff82169050919050565b600061100382610fd8565b9050919050565b61101381610ff8565b811461101e57600080fd5b50565b6000813590506110308161100a565b92915050565b60006020828403121561104c5761104b610f40565b5b600061105a84828501611021565b91505092915050565b61106c81610dc1565b82525050565b61107b81610ddd565b82525050565b600061012082019050818103600083015261109c818c610ed0565b90506110ab602083018b611063565b6110b8604083018a611063565b6110c56060830189611063565b6110d26080830188611063565b6110df60a0830187611063565b6110ec60c0830186611063565b6110f960e0830185611072565b611107610100830184611072565b9a9950505050505050505050565b6000602082019050818103600083015261112f8184610dfa565b905092915050565b60008115159050919050565b61114c81611137565b82525050565b60006020820190506111676000830184611143565b92915050565b7f4e487b7100000000000000000000000000000000000000000000000000000000600052602260045260246000fd5b600060028204905060018216806111b457607f821691505b6020821081036111c7576111c661116d565b5b50919050565b7f4e487b7100000000000000000000000000000000000000000000000000000000600052601160045260246000fd5b600061120782610dc1565b915061121283610dc1565b92508260ff03821115611228576112276111cd565b5b828201905092915050565b7f4e6f7420656e6f7567682061747472696275746520706f696e74730000000000600082015250565b6000611269601b83610ebf565b915061127482611233565b602082019050919050565b600060208201905081810360008301526112988161125c565b9050919050565b60006112aa82610dc1565b91506112b583610dc1565b9250828210156112c8576112c76111cd565b5b828203905092915050565b7f4e487b7100000000000000000000000000000000000000000000000000000000600052604160045260246000fd5b60008190508160005260206000209050919050565b60006020601f8301049050919050565b600082821b905092915050565b6000600883026113647fffffffffffffffffffffffffffffffffffffffffffffffffffffffffffffffff82611327565b61136e8683611327565b95508019841693508086168417925050509392505050565b6000819050919050565b6000819050919050565b60006113b56113b06113ab84611386565b611390565b611386565b9050919050565b6000819050919050565b6113cf8361139a565b6113e36113db826113bc565b848454611334565b825550505050565b600090565b6113f86113eb565b6114038184846113c6565b505050565b5b818110156114275761141c6000826113f0565b600181019050611409565b5050565b601f82111561146c5761143d81611302565b61144684611317565b81016020851015611455578190505b61146961146185611317565b830182611408565b50505b505050565b600082821c905092915050565b600061148f60001984600802611471565b1980831691505092915050565b60006114a8838361147e565b9150826002028217905092915050565b6114c182610d28565b67ffffffffffffffff8111156114da576114d96112d3565b5b6114e4825461119c565b6114ef82828561142b565b600060209050601f8311600181146115225760008415611510578287015190505b61151a858261149c565b865550611582565b601f19841661153086611302565b60005b8281101561155857848901518255600182019150602085019450602081019050611533565b868310156115755784890151611571601f89168261147e565b8355505b6001600288020188555050505b50505050505056fea2646970667358221220512e27bcf6928343f559a70d3ad145c7fe4e13a36ce0b193a6a2c2cb7371e9c764736f6c634300080f0033",
  "immutableReferences": {},
  "source": "// SPDX-License-Identifier: MIT\npragma solidity >=0.4.22 <0.9.0;\n\nimport \"./HeroContract.sol\";\n\ncontract PlayerContract is HeroContract {\n\n  function incrementAttributes(uint8 _attack, uint8 _defense, uint8 _speed, uint8 _luck) public hasHero {\n    uint8 sum = _attack + _defense + _speed + _luck;\n    require(sum > 0);\n    Hero storage hero = heroes[msg.sender];\n    require(sum <= hero.attributePoints, \"Not enough attribute points\");\n\n    if (hero.attack + _attack > MAX_ATTRIBUTE_POINTS) {\n      hero.attack = MAX_ATTRIBUTE_POINTS;\n    } else {\n        hero.attack += _attack;\n    }\n    if (hero.defense + _defense > MAX_ATTRIBUTE_POINTS) {\n      hero.defense = MAX_ATTRIBUTE_POINTS;\n    } else {\n      hero.defense += _defense;\n    }\n    if (hero.speed + _speed > MAX_ATTRIBUTE_POINTS) {\n      hero.speed = MAX_ATTRIBUTE_POINTS;\n    } else {\n      hero.speed += _speed;\n    }\n    if (hero.defense + _defense > MAX_ATTRIBUTE_POINTS) {\n      hero.defense = MAX_ATTRIBUTE_POINTS;\n    } else {\n      hero.defense += _defense;\n    }\n    hero.attributePoints -= sum;\n  }\n\n  function getMyHero() external view returns (Hero memory hero, string memory status) {\n    Hero memory senderHero = heroes[msg.sender];\n    if (senderHero.level != 0) {\n      hero = senderHero;\n      status = \"success\";\n    } else {\n      status = \"error\";\n    }\n  }\n\n  function burnHero() external hasHero returns (bool) {\n    delete heroes[msg.sender];\n    return true;\n  }\n\n  function createHero() external hasNotHero returns (Hero memory)  {\n    Hero memory newHero = _initializeHero();\n    heroes[msg.sender] = newHero;\n    return newHero;\n  }\n\n}\n",
  "sourcePath": "/Users/beeleethebee/Documents/web3/test_dapp/contracts/PlayerContract.sol",
  "compiler": {
    "name": "solc",
    "version": "0.8.15+commit.e14f2714.Emscripten.clang"
  },
  "schemaVersion": "3.4.8",
  "updatedAt": "2022-08-20T23:15:53.346Z",
  "networkType": "ethereum",
  "devdoc": {
    "kind": "dev",
    "methods": {},
    "version": 1
  },
  "userdoc": {
    "kind": "user",
    "methods": {},
    "version": 1
  }
}